{
  "_format": "hh-sol-artifact-1",
  "contractName": "UseSwapEth",
  "sourceName": "contracts/UseSwapEth.sol",
  "abi": [
    {
      "inputs": [
        {
          "internalType": "address",
          "name": "_uniswapRouter",
          "type": "address"
        }
      ],
      "stateMutability": "nonpayable",
      "type": "constructor"
    },
    {
      "inputs": [
        {
          "internalType": "uint256",
          "name": "amountOut",
          "type": "uint256"
        },
        {
          "internalType": "uint256",
          "name": "amountInMax",
          "type": "uint256"
        },
        {
          "internalType": "address[]",
          "name": "path",
          "type": "address[]"
        },
        {
          "internalType": "address",
          "name": "to",
          "type": "address"
        },
        {
          "internalType": "uint256",
          "name": "deadline",
          "type": "uint256"
        }
      ],
      "name": "handleSwapforEth",
      "outputs": [],
      "stateMutability": "nonpayable",
      "type": "function"
    },
    {
      "inputs": [],
      "name": "owner",
      "outputs": [
        {
          "internalType": "address",
          "name": "",
          "type": "address"
        }
      ],
      "stateMutability": "view",
      "type": "function"
    },
    {
      "inputs": [],
      "name": "swapCount",
      "outputs": [
        {
          "internalType": "uint256",
          "name": "",
          "type": "uint256"
        }
      ],
      "stateMutability": "view",
      "type": "function"
    },
    {
      "inputs": [],
      "name": "uniswapRouter",
      "outputs": [
        {
          "internalType": "address",
          "name": "",
          "type": "address"
        }
      ],
      "stateMutability": "view",
      "type": "function"
    }
  ],
  "bytecode": "0x608060405234801561001057600080fd5b50604051610be9380380610be98339818101604052810190610032919061011c565b806000806101000a81548173ffffffffffffffffffffffffffffffffffffffff021916908373ffffffffffffffffffffffffffffffffffffffff16021790555033600160006101000a81548173ffffffffffffffffffffffffffffffffffffffff021916908373ffffffffffffffffffffffffffffffffffffffff16021790555050610149565b600080fd5b600073ffffffffffffffffffffffffffffffffffffffff82169050919050565b60006100e9826100be565b9050919050565b6100f9816100de565b811461010457600080fd5b50565b600081519050610116816100f0565b92915050565b600060208284031215610132576101316100b9565b5b600061014084828501610107565b91505092915050565b610a91806101586000396000f3fe608060405234801561001057600080fd5b506004361061004c5760003560e01c80632eff0d9e14610051578063735de9f71461006f5780638da5cb5b1461008d578063d5360def146100ab575b600080fd5b6100596100c7565b60405161006691906103ac565b60405180910390f35b6100776100cd565b6040516100849190610408565b60405180910390f35b6100956100f1565b6040516100a29190610408565b60405180910390f35b6100c560048036038101906100c091906104f4565b610117565b005b60025481565b60008054906101000a900473ffffffffffffffffffffffffffffffffffffffff1681565b600160009054906101000a900473ffffffffffffffffffffffffffffffffffffffff1681565b8383600081811061012b5761012a61058e565b5b905060200201602081019061014091906105bd565b73ffffffffffffffffffffffffffffffffffffffff166323b872dd3330886040518463ffffffff1660e01b815260040161017c939291906105ea565b6020604051808303816000875af115801561019b573d6000803e3d6000fd5b505050506040513d601f19601f820116820180604052508101906101bf9190610659565b50838360008181106101d4576101d361058e565b5b90506020020160208101906101e991906105bd565b73ffffffffffffffffffffffffffffffffffffffff1663095ea7b360008054906101000a900473ffffffffffffffffffffffffffffffffffffffff16876040518363ffffffff1660e01b8152600401610243929190610686565b6020604051808303816000875af1158015610262573d6000803e3d6000fd5b505050506040513d601f19601f820116820180604052508101906102869190610659565b6102c5576040517f08c379a00000000000000000000000000000000000000000000000000000000081526004016102bc9061070c565b60405180910390fd5b60008054906101000a900473ffffffffffffffffffffffffffffffffffffffff1673ffffffffffffffffffffffffffffffffffffffff16634a25d94a8787878787876040518763ffffffff1660e01b8152600401610328969594939291906107ef565b6000604051808303816000875af1158015610347573d6000803e3d6000fd5b505050506040513d6000823e3d601f19601f8201168201806040525081019061037091906109af565b506001600260008282546103849190610a27565b92505081905550505050505050565b6000819050919050565b6103a681610393565b82525050565b60006020820190506103c1600083018461039d565b92915050565b600073ffffffffffffffffffffffffffffffffffffffff82169050919050565b60006103f2826103c7565b9050919050565b610402816103e7565b82525050565b600060208201905061041d60008301846103f9565b92915050565b6000604051905090565b600080fd5b600080fd5b61044081610393565b811461044b57600080fd5b50565b60008135905061045d81610437565b92915050565b600080fd5b600080fd5b600080fd5b60008083601f84011261048857610487610463565b5b8235905067ffffffffffffffff8111156104a5576104a4610468565b5b6020830191508360208202830111156104c1576104c061046d565b5b9250929050565b6104d1816103e7565b81146104dc57600080fd5b50565b6000813590506104ee816104c8565b92915050565b60008060008060008060a087890312156105115761051061042d565b5b600061051f89828a0161044e565b965050602061053089828a0161044e565b955050604087013567ffffffffffffffff81111561055157610550610432565b5b61055d89828a01610472565b9450945050606061057089828a016104df565b925050608061058189828a0161044e565b9150509295509295509295565b7f4e487b7100000000000000000000000000000000000000000000000000000000600052603260045260246000fd5b6000602082840312156105d3576105d261042d565b5b60006105e1848285016104df565b91505092915050565b60006060820190506105ff60008301866103f9565b61060c60208301856103f9565b610619604083018461039d565b949350505050565b60008115159050919050565b61063681610621565b811461064157600080fd5b50565b6000815190506106538161062d565b92915050565b60006020828403121561066f5761066e61042d565b5b600061067d84828501610644565b91505092915050565b600060408201905061069b60008301856103f9565b6106a8602083018461039d565b9392505050565b600082825260208201905092915050565b7f617070726f7665206661696c65642e0000000000000000000000000000000000600082015250565b60006106f6600f836106af565b9150610701826106c0565b602082019050919050565b60006020820190508181036000830152610725816106e9565b9050919050565b600082825260208201905092915050565b6000819050919050565b610750816103e7565b82525050565b60006107628383610747565b60208301905092915050565b600061077d60208401846104df565b905092915050565b6000602082019050919050565b600061079e838561072c565b93506107a98261073d565b8060005b858110156107e2576107bf828461076e565b6107c98882610756565b97506107d483610785565b9250506001810190506107ad565b5085925050509392505050565b600060a082019050610804600083018961039d565b610811602083018861039d565b8181036040830152610824818688610792565b905061083360608301856103f9565b610840608083018461039d565b979650505050505050565b6000601f19601f8301169050919050565b7f4e487b7100000000000000000000000000000000000000000000000000000000600052604160045260246000fd5b6108948261084b565b810181811067ffffffffffffffff821117156108b3576108b261085c565b5b80604052505050565b60006108c6610423565b90506108d2828261088b565b919050565b600067ffffffffffffffff8211156108f2576108f161085c565b5b602082029050602081019050919050565b60008151905061091281610437565b92915050565b600061092b610926846108d7565b6108bc565b9050808382526020820190506020840283018581111561094e5761094d61046d565b5b835b8181101561097757806109638882610903565b845260208401935050602081019050610950565b5050509392505050565b600082601f83011261099657610995610463565b5b81516109a6848260208601610918565b91505092915050565b6000602082840312156109c5576109c461042d565b5b600082015167ffffffffffffffff8111156109e3576109e2610432565b5b6109ef84828501610981565b91505092915050565b7f4e487b7100000000000000000000000000000000000000000000000000000000600052601160045260246000fd5b6000610a3282610393565b9150610a3d83610393565b9250828201905080821115610a5557610a546109f8565b5b9291505056fea264697066735822122057f800b03be86be5090adb20c7a92f8e13328ae9f65b40cf64781d5fdb93c72164736f6c63430008180033",
  "linkReferences": {},
  "deployedLinkReferences": {}
}