{
  "_format": "hh-sol-artifact-1",
  "contractName": "UseSwap",
  "sourceName": "contracts/UseSwap.sol",
  "abi": [
    {
      "inputs": [
        {
          "internalType": "address",
          "name": "_uniswapRouter",
          "type": "address"
        }
      ],
      "stateMutability": "nonpayable",
      "type": "constructor"
    },
    {
      "inputs": [
        {
          "internalType": "uint256",
          "name": "amountOut",
          "type": "uint256"
        },
        {
          "internalType": "uint256",
          "name": "amountInMax",
          "type": "uint256"
        },
        {
          "internalType": "address[]",
          "name": "path",
          "type": "address[]"
        },
        {
          "internalType": "address",
          "name": "to",
          "type": "address"
        },
        {
          "internalType": "uint256",
          "name": "deadline",
          "type": "uint256"
        }
      ],
      "name": "handleSwap",
      "outputs": [],
      "stateMutability": "nonpayable",
      "type": "function"
    },
    {
      "inputs": [
        {
          "internalType": "uint256",
          "name": "amountIn",
          "type": "uint256"
        },
        {
          "internalType": "uint256",
          "name": "amountOutMin",
          "type": "uint256"
        },
        {
          "internalType": "address[]",
          "name": "path",
          "type": "address[]"
        },
        {
          "internalType": "address",
          "name": "to",
          "type": "address"
        },
        {
          "internalType": "uint256",
          "name": "deadline",
          "type": "uint256"
        }
      ],
      "name": "handleSwapToken",
      "outputs": [],
      "stateMutability": "nonpayable",
      "type": "function"
    },
    {
      "inputs": [],
      "name": "owner",
      "outputs": [
        {
          "internalType": "address",
          "name": "",
          "type": "address"
        }
      ],
      "stateMutability": "view",
      "type": "function"
    },
    {
      "inputs": [],
      "name": "swapCount",
      "outputs": [
        {
          "internalType": "uint256",
          "name": "",
          "type": "uint256"
        }
      ],
      "stateMutability": "view",
      "type": "function"
    },
    {
      "inputs": [],
      "name": "swapCountToken",
      "outputs": [
        {
          "internalType": "uint256",
          "name": "",
          "type": "uint256"
        }
      ],
      "stateMutability": "view",
      "type": "function"
    },
    {
      "inputs": [],
      "name": "uniswapRouter",
      "outputs": [
        {
          "internalType": "address",
          "name": "",
          "type": "address"
        }
      ],
      "stateMutability": "view",
      "type": "function"
    }
  ],
  "bytecode": "0x608060405234801561001057600080fd5b50604051610ebb380380610ebb8339818101604052810190610032919061011c565b806000806101000a81548173ffffffffffffffffffffffffffffffffffffffff021916908373ffffffffffffffffffffffffffffffffffffffff16021790555033600160006101000a81548173ffffffffffffffffffffffffffffffffffffffff021916908373ffffffffffffffffffffffffffffffffffffffff16021790555050610149565b600080fd5b600073ffffffffffffffffffffffffffffffffffffffff82169050919050565b60006100e9826100be565b9050919050565b6100f9816100de565b811461010457600080fd5b50565b600081519050610116816100f0565b92915050565b600060208284031215610132576101316100b9565b5b600061014084828501610107565b91505092915050565b610d63806101586000396000f3fe608060405234801561001057600080fd5b50600436106100625760003560e01c806310e4584d146100675780632eff0d9e14610083578063735de9f7146100a15780638da5cb5b146100bf578063a54074a5146100dd578063af0bebf5146100f9575b600080fd5b610081600480360381019061007c9190610772565b610117565b005b61008b610393565b604051610098919061081b565b60405180910390f35b6100a9610399565b6040516100b69190610845565b60405180910390f35b6100c76103bd565b6040516100d49190610845565b60405180910390f35b6100f760048036038101906100f29190610772565b6103e3565b005b61010161065f565b60405161010e919061081b565b60405180910390f35b8383600081811061012b5761012a610860565b5b9050602002016020810190610140919061088f565b73ffffffffffffffffffffffffffffffffffffffff166323b872dd3330886040518463ffffffff1660e01b815260040161017c939291906108bc565b6020604051808303816000875af115801561019b573d6000803e3d6000fd5b505050506040513d601f19601f820116820180604052508101906101bf919061092b565b50838360008181106101d4576101d3610860565b5b90506020020160208101906101e9919061088f565b73ffffffffffffffffffffffffffffffffffffffff1663095ea7b360008054906101000a900473ffffffffffffffffffffffffffffffffffffffff16876040518363ffffffff1660e01b8152600401610243929190610958565b6020604051808303816000875af1158015610262573d6000803e3d6000fd5b505050506040513d601f19601f82011682018060405250810190610286919061092b565b6102c5576040517f08c379a00000000000000000000000000000000000000000000000000000000081526004016102bc906109de565b60405180910390fd5b60008054906101000a900473ffffffffffffffffffffffffffffffffffffffff1673ffffffffffffffffffffffffffffffffffffffff16638803dbee8787878787876040518763ffffffff1660e01b815260040161032896959493929190610ac1565b6000604051808303816000875af1158015610347573d6000803e3d6000fd5b505050506040513d6000823e3d601f19601f820116820180604052508101906103709190610c81565b506001600260008282546103849190610cf9565b92505081905550505050505050565b60025481565b60008054906101000a900473ffffffffffffffffffffffffffffffffffffffff1681565b600160009054906101000a900473ffffffffffffffffffffffffffffffffffffffff1681565b838360008181106103f7576103f6610860565b5b905060200201602081019061040c919061088f565b73ffffffffffffffffffffffffffffffffffffffff166323b872dd3330896040518463ffffffff1660e01b8152600401610448939291906108bc565b6020604051808303816000875af1158015610467573d6000803e3d6000fd5b505050506040513d601f19601f8201168201806040525081019061048b919061092b565b50838360008181106104a05761049f610860565b5b90506020020160208101906104b5919061088f565b73ffffffffffffffffffffffffffffffffffffffff1663095ea7b360008054906101000a900473ffffffffffffffffffffffffffffffffffffffff16876040518363ffffffff1660e01b815260040161050f929190610958565b6020604051808303816000875af115801561052e573d6000803e3d6000fd5b505050506040513d601f19601f82011682018060405250810190610552919061092b565b610591576040517f08c379a0000000000000000000000000000000000000000000000000000000008152600401610588906109de565b60405180910390fd5b60008054906101000a900473ffffffffffffffffffffffffffffffffffffffff1673ffffffffffffffffffffffffffffffffffffffff166338ed17398787878787876040518763ffffffff1660e01b81526004016105f496959493929190610ac1565b6000604051808303816000875af1158015610613573d6000803e3d6000fd5b505050506040513d6000823e3d601f19601f8201168201806040525081019061063c9190610c81565b506001600360008282546106509190610cf9565b92505081905550505050505050565b60035481565b6000604051905090565b600080fd5b600080fd5b6000819050919050565b61068c81610679565b811461069757600080fd5b50565b6000813590506106a981610683565b92915050565b600080fd5b600080fd5b600080fd5b60008083601f8401126106d4576106d36106af565b5b8235905067ffffffffffffffff8111156106f1576106f06106b4565b5b60208301915083602082028301111561070d5761070c6106b9565b5b9250929050565b600073ffffffffffffffffffffffffffffffffffffffff82169050919050565b600061073f82610714565b9050919050565b61074f81610734565b811461075a57600080fd5b50565b60008135905061076c81610746565b92915050565b60008060008060008060a0878903121561078f5761078e61066f565b5b600061079d89828a0161069a565b96505060206107ae89828a0161069a565b955050604087013567ffffffffffffffff8111156107cf576107ce610674565b5b6107db89828a016106be565b945094505060606107ee89828a0161075d565b92505060806107ff89828a0161069a565b9150509295509295509295565b61081581610679565b82525050565b6000602082019050610830600083018461080c565b92915050565b61083f81610734565b82525050565b600060208201905061085a6000830184610836565b92915050565b7f4e487b7100000000000000000000000000000000000000000000000000000000600052603260045260246000fd5b6000602082840312156108a5576108a461066f565b5b60006108b38482850161075d565b91505092915050565b60006060820190506108d16000830186610836565b6108de6020830185610836565b6108eb604083018461080c565b949350505050565b60008115159050919050565b610908816108f3565b811461091357600080fd5b50565b600081519050610925816108ff565b92915050565b6000602082840312156109415761094061066f565b5b600061094f84828501610916565b91505092915050565b600060408201905061096d6000830185610836565b61097a602083018461080c565b9392505050565b600082825260208201905092915050565b7f617070726f7665206661696c65642e0000000000000000000000000000000000600082015250565b60006109c8600f83610981565b91506109d382610992565b602082019050919050565b600060208201905081810360008301526109f7816109bb565b9050919050565b600082825260208201905092915050565b6000819050919050565b610a2281610734565b82525050565b6000610a348383610a19565b60208301905092915050565b6000610a4f602084018461075d565b905092915050565b6000602082019050919050565b6000610a7083856109fe565b9350610a7b82610a0f565b8060005b85811015610ab457610a918284610a40565b610a9b8882610a28565b9750610aa683610a57565b925050600181019050610a7f565b5085925050509392505050565b600060a082019050610ad6600083018961080c565b610ae3602083018861080c565b8181036040830152610af6818688610a64565b9050610b056060830185610836565b610b12608083018461080c565b979650505050505050565b6000601f19601f8301169050919050565b7f4e487b7100000000000000000000000000000000000000000000000000000000600052604160045260246000fd5b610b6682610b1d565b810181811067ffffffffffffffff82111715610b8557610b84610b2e565b5b80604052505050565b6000610b98610665565b9050610ba48282610b5d565b919050565b600067ffffffffffffffff821115610bc457610bc3610b2e565b5b602082029050602081019050919050565b600081519050610be481610683565b92915050565b6000610bfd610bf884610ba9565b610b8e565b90508083825260208201905060208402830185811115610c2057610c1f6106b9565b5b835b81811015610c495780610c358882610bd5565b845260208401935050602081019050610c22565b5050509392505050565b600082601f830112610c6857610c676106af565b5b8151610c78848260208601610bea565b91505092915050565b600060208284031215610c9757610c9661066f565b5b600082015167ffffffffffffffff811115610cb557610cb4610674565b5b610cc184828501610c53565b91505092915050565b7f4e487b7100000000000000000000000000000000000000000000000000000000600052601160045260246000fd5b6000610d0482610679565b9150610d0f83610679565b9250828201905080821115610d2757610d26610cca565b5b9291505056fea264697066735822122030c69a558239f0b0a8f5d4817aab4a270959599eed0c1bf719bf061e0ebf970a64736f6c63430008180033",
  "linkReferences": {},
  "deployedLinkReferences": {}
}